{
	"data": {
		"bytecode": {
			"linkReferences": {},
			"object": "608060405234801561001057600080fd5b50611f1f806100206000396000f3fe60806040523480156200001157600080fd5b5060043610620000465760003560e01c80639ad1ee10146200004b578063aa9a068f1462000081578063c114324c14620000a3575b600080fd5b620000696004803603810190620000639190620004f7565b620000c3565b60405162000078919062000621565b60405180910390f35b6200008b62000103565b6040516200009a91906200063e565b60405180910390f35b620000c16004803603810190620000bb9190620002f2565b62000193565b005b60008181548110620000d457600080fd5b906000526020600020016000915054906101000a900473ffffffffffffffffffffffffffffffffffffffff1681565b606060008054806020026020016040519081016040528092919081815260200182805480156200018957602002820191906000526020600020905b8160009054906101000a900473ffffffffffffffffffffffffffffffffffffffff1673ffffffffffffffffffffffffffffffffffffffff16815260200190600101908083116200013e575b5050505050905090565b60008b8b8b8b8b8b8b8b8b8b8b604051620001ae906200024f565b620001c49b9a9998979695949392919062000662565b604051809103906000f080158015620001e1573d6000803e3d6000fd5b509080600181540180825580915050600190039060005260206000200160009091909190916101000a81548173ffffffffffffffffffffffffffffffffffffffff021916908373ffffffffffffffffffffffffffffffffffffffff1602179055505050505050505050505050565b6115b3806200093783390190565b6000620002746200026e8462000784565b6200075b565b905082815260208101848484011115620002935762000292620008fc565b5b620002a08482856200084d565b509392505050565b600082601f830112620002c057620002bf620008f7565b5b8135620002d28482602086016200025d565b91505092915050565b600081359050620002ec816200091c565b92915050565b60008060008060008060008060008060006101608c8e0312156200031b576200031a62000906565b5b60008c013567ffffffffffffffff8111156200033c576200033b62000901565b5b6200034a8e828f01620002a8565b9b505060208c013567ffffffffffffffff8111156200036e576200036d62000901565b5b6200037c8e828f01620002a8565b9a505060408c013567ffffffffffffffff811115620003a0576200039f62000901565b5b620003ae8e828f01620002a8565b99505060608c013567ffffffffffffffff811115620003d257620003d162000901565b5b620003e08e828f01620002a8565b9850506080620003f38e828f01620002db565b97505060a0620004068e828f01620002db565b96505060c0620004198e828f01620002db565b95505060e08c013567ffffffffffffffff8111156200043d576200043c62000901565b5b6200044b8e828f01620002a8565b9450506101008c013567ffffffffffffffff81111562000470576200046f62000901565b5b6200047e8e828f01620002a8565b9350506101208c013567ffffffffffffffff811115620004a357620004a262000901565b5b620004b18e828f01620002a8565b9250506101408c013567ffffffffffffffff811115620004d657620004d562000901565b5b620004e48e828f01620002a8565b9150509295989b509295989b9093969950565b60006020828403121562000510576200050f62000906565b5b60006200052084828501620002db565b91505092915050565b600062000537838362000543565b60208301905092915050565b6200054e816200080f565b82525050565b6200055f816200080f565b82525050565b60006200057282620007ca565b6200057e8185620007ed565b93506200058b83620007ba565b8060005b83811015620005c2578151620005a6888262000529565b9750620005b383620007e0565b9250506001810190506200058f565b5085935050505092915050565b6000620005dc82620007d5565b620005e88185620007fe565b9350620005fa8185602086016200085c565b62000605816200090b565b840191505092915050565b6200061b8162000843565b82525050565b600060208201905062000638600083018462000554565b92915050565b600060208201905081810360008301526200065a818462000565565b905092915050565b60006101608201905081810360008301526200067f818e620005cf565b9050818103602083015262000695818d620005cf565b90508181036040830152620006ab818c620005cf565b90508181036060830152620006c1818b620005cf565b9050620006d2608083018a62000610565b620006e160a083018962000610565b620006f060c083018862000610565b81810360e0830152620007048187620005cf565b90508181036101008301526200071b8186620005cf565b9050818103610120830152620007328185620005cf565b9050818103610140830152620007498184620005cf565b90509c9b505050505050505050505050565b6000620007676200077a565b905062000775828262000892565b919050565b6000604051905090565b600067ffffffffffffffff821115620007a257620007a1620008c8565b5b620007ad826200090b565b9050602081019050919050565b6000819050602082019050919050565b600081519050919050565b600081519050919050565b6000602082019050919050565b600082825260208201905092915050565b600082825260208201905092915050565b60006200081c8262000823565b9050919050565b600073ffffffffffffffffffffffffffffffffffffffff82169050919050565b6000819050919050565b82818337600083830152505050565b60005b838110156200087c5780820151818401526020810190506200085f565b838111156200088c576000848401525b50505050565b6200089d826200090b565b810181811067ffffffffffffffff82111715620008bf57620008be620008c8565b5b80604052505050565b7f4e487b7100000000000000000000000000000000000000000000000000000000600052604160045260246000fd5b600080fd5b600080fd5b600080fd5b600080fd5b6000601f19601f8301169050919050565b620009278162000843565b81146200093357600080fd5b5056fe60806040523480156200001157600080fd5b50604051620015b3380380620015b38339818101604052810190620000379190620002a0565b8a600090805190602001906200004f9291906200015b565b508960019080519060200190620000689291906200015b565b508860029080519060200190620000819291906200015b565b5087600390805190602001906200009a9291906200015b565b508660048190555085600581905550846006819055508360079080519060200190620000c89291906200015b565b508260089080519060200190620000e19291906200015b565b508160099080519060200190620000fa9291906200015b565b5080600a9080519060200190620001139291906200015b565b506000600b60006101000a81548160ff0219169083151502179055506000600b60016101000a81548160ff02191690831515021790555050505050505050505050506200064d565b828054620001699062000544565b90600052602060002090601f0160209004810192826200018d5760008555620001d9565b82601f10620001a857805160ff1916838001178555620001d9565b82800160010185558215620001d9579182015b82811115620001d8578251825591602001919060010190620001bb565b5b509050620001e89190620001ec565b5090565b5b8082111562000207576000816000905550600101620001ed565b5090565b6000620002226200021c84620004ce565b620004a5565b90508281526020810184848401111562000241576200024062000613565b5b6200024e8482856200050e565b509392505050565b600082601f8301126200026e576200026d6200060e565b5b8151620002808482602086016200020b565b91505092915050565b6000815190506200029a8162000633565b92915050565b60008060008060008060008060008060006101608c8e031215620002c957620002c86200061d565b5b60008c015167ffffffffffffffff811115620002ea57620002e962000618565b5b620002f88e828f0162000256565b9b505060208c015167ffffffffffffffff8111156200031c576200031b62000618565b5b6200032a8e828f0162000256565b9a505060408c015167ffffffffffffffff8111156200034e576200034d62000618565b5b6200035c8e828f0162000256565b99505060608c015167ffffffffffffffff81111562000380576200037f62000618565b5b6200038e8e828f0162000256565b9850506080620003a18e828f0162000289565b97505060a0620003b48e828f0162000289565b96505060c0620003c78e828f0162000289565b95505060e08c015167ffffffffffffffff811115620003eb57620003ea62000618565b5b620003f98e828f0162000256565b9450506101008c015167ffffffffffffffff8111156200041e576200041d62000618565b5b6200042c8e828f0162000256565b9350506101208c015167ffffffffffffffff81111562000451576200045062000618565b5b6200045f8e828f0162000256565b9250506101408c015167ffffffffffffffff81111562000484576200048362000618565b5b620004928e828f0162000256565b9150509295989b509295989b9093969950565b6000620004b1620004c4565b9050620004bf82826200057a565b919050565b6000604051905090565b600067ffffffffffffffff821115620004ec57620004eb620005df565b5b620004f78262000622565b9050602081019050919050565b6000819050919050565b60005b838110156200052e57808201518184015260208101905062000511565b838111156200053e576000848401525b50505050565b600060028204905060018216806200055d57607f821691505b60208210811415620005745762000573620005b0565b5b50919050565b620005858262000622565b810181811067ffffffffffffffff82111715620005a757620005a6620005df565b5b80604052505050565b7f4e487b7100000000000000000000000000000000000000000000000000000000600052602260045260246000fd5b7f4e487b7100000000000000000000000000000000000000000000000000000000600052604160045260246000fd5b600080fd5b600080fd5b600080fd5b600080fd5b6000601f19601f8301169050919050565b6200063e8162000504565b81146200064a57600080fd5b50565b610f56806200065d6000396000f3fe608060405234801561001057600080fd5b50600436106100625760003560e01c806330884b68146100675780633bc5de301461008557806347f450b0146100ae5780634a2bfdc7146100cc57806386444b43146100d6578063dc4ade84146100f2575b600080fd5b61006f6100fc565b60405161007c9190610c30565b60405180910390f35b61008d61018e565b6040516100a59c9b9a99989796959493929190610c52565b60405180910390f35b6100b66105d2565b6040516100c39190610d3d565b60405180910390f35b6100d4610834565b005b6100f060048036038101906100eb9190610a51565b610851565b005b6100fa6108f9565b005b60606000805461010b90610e3a565b80601f016020809104026020016040519081016040528092919081815260200182805461013790610e3a565b80156101845780601f1061015957610100808354040283529160200191610184565b820191906000526020600020905b81548152906001019060200180831161016757829003601f168201915b5050505050905090565b60608060606000806000606080606080600080600160026003600454600554600654600760086009600a600b60009054906101000a900460ff16600b60019054906101000a900460ff168b80546101e490610e3a565b80601f016020809104026020016040519081016040528092919081815260200182805461021090610e3a565b801561025d5780601f106102325761010080835404028352916020019161025d565b820191906000526020600020905b81548152906001019060200180831161024057829003601f168201915b50505050509b508a805461027090610e3a565b80601f016020809104026020016040519081016040528092919081815260200182805461029c90610e3a565b80156102e95780601f106102be576101008083540402835291602001916102e9565b820191906000526020600020905b8154815290600101906020018083116102cc57829003601f168201915b50505050509a508980546102fc90610e3a565b80601f016020809104026020016040519081016040528092919081815260200182805461032890610e3a565b80156103755780601f1061034a57610100808354040283529160200191610375565b820191906000526020600020905b81548152906001019060200180831161035857829003601f168201915b5050505050995085805461038890610e3a565b80601f01602080910402602001604051908101604052809291908181526020018280546103b490610e3a565b80156104015780601f106103d657610100808354040283529160200191610401565b820191906000526020600020905b8154815290600101906020018083116103e457829003601f168201915b5050505050955084805461041490610e3a565b80601f016020809104026020016040519081016040528092919081815260200182805461044090610e3a565b801561048d5780601f106104625761010080835404028352916020019161048d565b820191906000526020600020905b81548152906001019060200180831161047057829003601f168201915b505050505094508380546104a090610e3a565b80601f01602080910402602001604051908101604052809291908181526020018280546104cc90610e3a565b80156105195780601f106104ee57610100808354040283529160200191610519565b820191906000526020600020905b8154815290600101906020018083116104fc57829003601f168201915b5050505050935082805461052c90610e3a565b80601f016020809104026020016040519081016040528092919081815260200182805461055890610e3a565b80156105a55780601f1061057a576101008083540402835291602001916105a5565b820191906000526020600020905b81548152906001019060200180831161058857829003601f168201915b505050505092509b509b509b509b509b509b509b509b509b509b509b509b50909192939495969798999a9b565b6105da610916565b600c6040518060800160405290816000820180546105f790610e3a565b80601f016020809104026020016040519081016040528092919081815260200182805461062390610e3a565b80156106705780601f1061064557610100808354040283529160200191610670565b820191906000526020600020905b81548152906001019060200180831161065357829003601f168201915b5050505050815260200160018201805461068990610e3a565b80601f01602080910402602001604051908101604052809291908181526020018280546106b590610e3a565b80156107025780601f106106d757610100808354040283529160200191610702565b820191906000526020600020905b8154815290600101906020018083116106e557829003601f168201915b5050505050815260200160028201805461071b90610e3a565b80601f016020809104026020016040519081016040528092919081815260200182805461074790610e3a565b80156107945780601f1061076957610100808354040283529160200191610794565b820191906000526020600020905b81548152906001019060200180831161077757829003601f168201915b505050505081526020016003820180546107ad90610e3a565b80601f01602080910402602001604051908101604052809291908181526020018280546107d990610e3a565b80156108265780601f106107fb57610100808354040283529160200191610826565b820191906000526020600020905b81548152906001019060200180831161080957829003601f168201915b505050505081525050905090565b6001600b60006101000a81548160ff021916908315150217905550565b604051806080016040528085815260200184815260200183815260200182815250600c600082015181600001908051906020019061089092919061093e565b5060208201518160010190805190602001906108ad92919061093e565b5060408201518160020190805190602001906108ca92919061093e565b5060608201518160030190805190602001906108e792919061093e565b509050506108f3610834565b50505050565b6001600b60016101000a81548160ff021916908315150217905550565b6040518060800160405280606081526020016060815260200160608152602001606081525090565b82805461094a90610e3a565b90600052602060002090601f01602090048101928261096c57600085556109b3565b82601f1061098557805160ff19168380011785556109b3565b828001600101855582156109b3579182015b828111156109b2578251825591602001919060010190610997565b5b5090506109c091906109c4565b5090565b5b808211156109dd5760008160009055506001016109c5565b5090565b60006109f46109ef84610d84565b610d5f565b905082815260208101848484011115610a1057610a0f610f00565b5b610a1b848285610df8565b509392505050565b600082601f830112610a3857610a37610efb565b5b8135610a488482602086016109e1565b91505092915050565b60008060008060808587031215610a6b57610a6a610f0a565b5b600085013567ffffffffffffffff811115610a8957610a88610f05565b5b610a9587828801610a23565b945050602085013567ffffffffffffffff811115610ab657610ab5610f05565b5b610ac287828801610a23565b935050604085013567ffffffffffffffff811115610ae357610ae2610f05565b5b610aef87828801610a23565b925050606085013567ffffffffffffffff811115610b1057610b0f610f05565b5b610b1c87828801610a23565b91505092959194509250565b610b3181610de2565b82525050565b6000610b4282610db5565b610b4c8185610dc0565b9350610b5c818560208601610e07565b610b6581610f0f565b840191505092915050565b6000610b7b82610db5565b610b858185610dd1565b9350610b95818560208601610e07565b610b9e81610f0f565b840191505092915050565b60006080830160008301518482036000860152610bc68282610b37565b91505060208301518482036020860152610be08282610b37565b91505060408301518482036040860152610bfa8282610b37565b91505060608301518482036060860152610c148282610b37565b9150508091505092915050565b610c2a81610dee565b82525050565b60006020820190508181036000830152610c4a8184610b70565b905092915050565b6000610180820190508181036000830152610c6d818f610b70565b90508181036020830152610c81818e610b70565b90508181036040830152610c95818d610b70565b9050610ca4606083018c610c21565b610cb1608083018b610c21565b610cbe60a083018a610c21565b81810360c0830152610cd08189610b70565b905081810360e0830152610ce48188610b70565b9050818103610100830152610cf98187610b70565b9050818103610120830152610d0e8186610b70565b9050610d1e610140830185610b28565b610d2c610160830184610b28565b9d9c50505050505050505050505050565b60006020820190508181036000830152610d578184610ba9565b905092915050565b6000610d69610d7a565b9050610d758282610e6c565b919050565b6000604051905090565b600067ffffffffffffffff821115610d9f57610d9e610ecc565b5b610da882610f0f565b9050602081019050919050565b600081519050919050565b600082825260208201905092915050565b600082825260208201905092915050565b60008115159050919050565b6000819050919050565b82818337600083830152505050565b60005b83811015610e25578082015181840152602081019050610e0a565b83811115610e34576000848401525b50505050565b60006002820490506001821680610e5257607f821691505b60208210811415610e6657610e65610e9d565b5b50919050565b610e7582610f0f565b810181811067ffffffffffffffff82111715610e9457610e93610ecc565b5b80604052505050565b7f4e487b7100000000000000000000000000000000000000000000000000000000600052602260045260246000fd5b7f4e487b7100000000000000000000000000000000000000000000000000000000600052604160045260246000fd5b600080fd5b600080fd5b600080fd5b600080fd5b6000601f19601f830116905091905056fea264697066735822122095fba1c6fbe0453d990d6d43d0a8ca041af3440729794029c29833080f91bbfb64736f6c63430008060033a2646970667358221220a6670fee78c5511fb0e538146ba838553956c8d2963c8516b1c2eb9fbd4f6a5964736f6c63430008060033",
			"opcodes": "PUSH1 0x80 PUSH1 0x40 MSTORE CALLVALUE DUP1 ISZERO PUSH2 0x10 JUMPI PUSH1 0x0 DUP1 REVERT JUMPDEST POP PUSH2 0x1F1F DUP1 PUSH2 0x20 PUSH1 0x0 CODECOPY PUSH1 0x0 RETURN INVALID PUSH1 0x80 PUSH1 0x40 MSTORE CALLVALUE DUP1 ISZERO PUSH3 0x11 JUMPI PUSH1 0x0 DUP1 REVERT JUMPDEST POP PUSH1 0x4 CALLDATASIZE LT PUSH3 0x46 JUMPI PUSH1 0x0 CALLDATALOAD PUSH1 0xE0 SHR DUP1 PUSH4 0x9AD1EE10 EQ PUSH3 0x4B JUMPI DUP1 PUSH4 0xAA9A068F EQ PUSH3 0x81 JUMPI DUP1 PUSH4 0xC114324C EQ PUSH3 0xA3 JUMPI JUMPDEST PUSH1 0x0 DUP1 REVERT JUMPDEST PUSH3 0x69 PUSH1 0x4 DUP1 CALLDATASIZE SUB DUP2 ADD SWAP1 PUSH3 0x63 SWAP2 SWAP1 PUSH3 0x4F7 JUMP JUMPDEST PUSH3 0xC3 JUMP JUMPDEST PUSH1 0x40 MLOAD PUSH3 0x78 SWAP2 SWAP1 PUSH3 0x621 JUMP JUMPDEST PUSH1 0x40 MLOAD DUP1 SWAP2 SUB SWAP1 RETURN JUMPDEST PUSH3 0x8B PUSH3 0x103 JUMP JUMPDEST PUSH1 0x40 MLOAD PUSH3 0x9A SWAP2 SWAP1 PUSH3 0x63E JUMP JUMPDEST PUSH1 0x40 MLOAD DUP1 SWAP2 SUB SWAP1 RETURN JUMPDEST PUSH3 0xC1 PUSH1 0x4 DUP1 CALLDATASIZE SUB DUP2 ADD SWAP1 PUSH3 0xBB SWAP2 SWAP1 PUSH3 0x2F2 JUMP JUMPDEST PUSH3 0x193 JUMP JUMPDEST STOP JUMPDEST PUSH1 0x0 DUP2 DUP2 SLOAD DUP2 LT PUSH3 0xD4 JUMPI PUSH1 0x0 DUP1 REVERT JUMPDEST SWAP1 PUSH1 0x0 MSTORE PUSH1 0x20 PUSH1 0x0 KECCAK256 ADD PUSH1 0x0 SWAP2 POP SLOAD SWAP1 PUSH2 0x100 EXP SWAP1 DIV PUSH20 0xFFFFFFFFFFFFFFFFFFFFFFFFFFFFFFFFFFFFFFFF AND DUP2 JUMP JUMPDEST PUSH1 0x60 PUSH1 0x0 DUP1 SLOAD DUP1 PUSH1 0x20 MUL PUSH1 0x20 ADD PUSH1 0x40 MLOAD SWAP1 DUP2 ADD PUSH1 0x40 MSTORE DUP1 SWAP3 SWAP2 SWAP1 DUP2 DUP2 MSTORE PUSH1 0x20 ADD DUP3 DUP1 SLOAD DUP1 ISZERO PUSH3 0x189 JUMPI PUSH1 0x20 MUL DUP3 ADD SWAP2 SWAP1 PUSH1 0x0 MSTORE PUSH1 0x20 PUSH1 0x0 KECCAK256 SWAP1 JUMPDEST DUP2 PUSH1 0x0 SWAP1 SLOAD SWAP1 PUSH2 0x100 EXP SWAP1 DIV PUSH20 0xFFFFFFFFFFFFFFFFFFFFFFFFFFFFFFFFFFFFFFFF AND PUSH20 0xFFFFFFFFFFFFFFFFFFFFFFFFFFFFFFFFFFFFFFFF AND DUP2 MSTORE PUSH1 0x20 ADD SWAP1 PUSH1 0x1 ADD SWAP1 DUP1 DUP4 GT PUSH3 0x13E JUMPI JUMPDEST POP POP POP POP POP SWAP1 POP SWAP1 JUMP JUMPDEST PUSH1 0x0 DUP12 DUP12 DUP12 DUP12 DUP12 DUP12 DUP12 DUP12 DUP12 DUP12 DUP12 PUSH1 0x40 MLOAD PUSH3 0x1AE SWAP1 PUSH3 0x24F JUMP JUMPDEST PUSH3 0x1C4 SWAP12 SWAP11 SWAP10 SWAP9 SWAP8 SWAP7 SWAP6 SWAP5 SWAP4 SWAP3 SWAP2 SWAP1 PUSH3 0x662 JUMP JUMPDEST PUSH1 0x40 MLOAD DUP1 SWAP2 SUB SWAP1 PUSH1 0x0 CREATE DUP1 ISZERO DUP1 ISZERO PUSH3 0x1E1 JUMPI RETURNDATASIZE PUSH1 0x0 DUP1 RETURNDATACOPY RETURNDATASIZE PUSH1 0x0 REVERT JUMPDEST POP SWAP1 DUP1 PUSH1 0x1 DUP2 SLOAD ADD DUP1 DUP3 SSTORE DUP1 SWAP2 POP POP PUSH1 0x1 SWAP1 SUB SWAP1 PUSH1 0x0 MSTORE PUSH1 0x20 PUSH1 0x0 KECCAK256 ADD PUSH1 0x0 SWAP1 SWAP2 SWAP1 SWAP2 SWAP1 SWAP2 PUSH2 0x100 EXP DUP2 SLOAD DUP2 PUSH20 0xFFFFFFFFFFFFFFFFFFFFFFFFFFFFFFFFFFFFFFFF MUL NOT AND SWAP1 DUP4 PUSH20 0xFFFFFFFFFFFFFFFFFFFFFFFFFFFFFFFFFFFFFFFF AND MUL OR SWAP1 SSTORE POP POP POP POP POP POP POP POP POP POP POP POP JUMP JUMPDEST PUSH2 0x15B3 DUP1 PUSH3 0x937 DUP4 CODECOPY ADD SWAP1 JUMP JUMPDEST PUSH1 0x0 PUSH3 0x274 PUSH3 0x26E DUP5 PUSH3 0x784 JUMP JUMPDEST PUSH3 0x75B JUMP JUMPDEST SWAP1 POP DUP3 DUP2 MSTORE PUSH1 0x20 DUP2 ADD DUP5 DUP5 DUP5 ADD GT ISZERO PUSH3 0x293 JUMPI PUSH3 0x292 PUSH3 0x8FC JUMP JUMPDEST JUMPDEST PUSH3 0x2A0 DUP5 DUP3 DUP6 PUSH3 0x84D JUMP JUMPDEST POP SWAP4 SWAP3 POP POP POP JUMP JUMPDEST PUSH1 0x0 DUP3 PUSH1 0x1F DUP4 ADD SLT PUSH3 0x2C0 JUMPI PUSH3 0x2BF PUSH3 0x8F7 JUMP JUMPDEST JUMPDEST DUP2 CALLDATALOAD PUSH3 0x2D2 DUP5 DUP3 PUSH1 0x20 DUP7 ADD PUSH3 0x25D JUMP JUMPDEST SWAP2 POP POP SWAP3 SWAP2 POP POP JUMP JUMPDEST PUSH1 0x0 DUP2 CALLDATALOAD SWAP1 POP PUSH3 0x2EC DUP2 PUSH3 0x91C JUMP JUMPDEST SWAP3 SWAP2 POP POP JUMP JUMPDEST PUSH1 0x0 DUP1 PUSH1 0x0 DUP1 PUSH1 0x0 DUP1 PUSH1 0x0 DUP1 PUSH1 0x0 DUP1 PUSH1 0x0 PUSH2 0x160 DUP13 DUP15 SUB SLT ISZERO PUSH3 0x31B JUMPI PUSH3 0x31A PUSH3 0x906 JUMP JUMPDEST JUMPDEST PUSH1 0x0 DUP13 ADD CALLDATALOAD PUSH8 0xFFFFFFFFFFFFFFFF DUP2 GT ISZERO PUSH3 0x33C JUMPI PUSH3 0x33B PUSH3 0x901 JUMP JUMPDEST JUMPDEST PUSH3 0x34A DUP15 DUP3 DUP16 ADD PUSH3 0x2A8 JUMP JUMPDEST SWAP12 POP POP PUSH1 0x20 DUP13 ADD CALLDATALOAD PUSH8 0xFFFFFFFFFFFFFFFF DUP2 GT ISZERO PUSH3 0x36E JUMPI PUSH3 0x36D PUSH3 0x901 JUMP JUMPDEST JUMPDEST PUSH3 0x37C DUP15 DUP3 DUP16 ADD PUSH3 0x2A8 JUMP JUMPDEST SWAP11 POP POP PUSH1 0x40 DUP13 ADD CALLDATALOAD PUSH8 0xFFFFFFFFFFFFFFFF DUP2 GT ISZERO PUSH3 0x3A0 JUMPI PUSH3 0x39F PUSH3 0x901 JUMP JUMPDEST JUMPDEST PUSH3 0x3AE DUP15 DUP3 DUP16 ADD PUSH3 0x2A8 JUMP JUMPDEST SWAP10 POP POP PUSH1 0x60 DUP13 ADD CALLDATALOAD PUSH8 0xFFFFFFFFFFFFFFFF DUP2 GT ISZERO PUSH3 0x3D2 JUMPI PUSH3 0x3D1 PUSH3 0x901 JUMP JUMPDEST JUMPDEST PUSH3 0x3E0 DUP15 DUP3 DUP16 ADD PUSH3 0x2A8 JUMP JUMPDEST SWAP9 POP POP PUSH1 0x80 PUSH3 0x3F3 DUP15 DUP3 DUP16 ADD PUSH3 0x2DB JUMP JUMPDEST SWAP8 POP POP PUSH1 0xA0 PUSH3 0x406 DUP15 DUP3 DUP16 ADD PUSH3 0x2DB JUMP JUMPDEST SWAP7 POP POP PUSH1 0xC0 PUSH3 0x419 DUP15 DUP3 DUP16 ADD PUSH3 0x2DB JUMP JUMPDEST SWAP6 POP POP PUSH1 0xE0 DUP13 ADD CALLDATALOAD PUSH8 0xFFFFFFFFFFFFFFFF DUP2 GT ISZERO PUSH3 0x43D JUMPI PUSH3 0x43C PUSH3 0x901 JUMP JUMPDEST JUMPDEST PUSH3 0x44B DUP15 DUP3 DUP16 ADD PUSH3 0x2A8 JUMP JUMPDEST SWAP5 POP POP PUSH2 0x100 DUP13 ADD CALLDATALOAD PUSH8 0xFFFFFFFFFFFFFFFF DUP2 GT ISZERO PUSH3 0x470 JUMPI PUSH3 0x46F PUSH3 0x901 JUMP JUMPDEST JUMPDEST PUSH3 0x47E DUP15 DUP3 DUP16 ADD PUSH3 0x2A8 JUMP JUMPDEST SWAP4 POP POP PUSH2 0x120 DUP13 ADD CALLDATALOAD PUSH8 0xFFFFFFFFFFFFFFFF DUP2 GT ISZERO PUSH3 0x4A3 JUMPI PUSH3 0x4A2 PUSH3 0x901 JUMP JUMPDEST JUMPDEST PUSH3 0x4B1 DUP15 DUP3 DUP16 ADD PUSH3 0x2A8 JUMP JUMPDEST SWAP3 POP POP PUSH2 0x140 DUP13 ADD CALLDATALOAD PUSH8 0xFFFFFFFFFFFFFFFF DUP2 GT ISZERO PUSH3 0x4D6 JUMPI PUSH3 0x4D5 PUSH3 0x901 JUMP JUMPDEST JUMPDEST PUSH3 0x4E4 DUP15 DUP3 DUP16 ADD PUSH3 0x2A8 JUMP JUMPDEST SWAP2 POP POP SWAP3 SWAP6 SWAP9 SWAP12 POP SWAP3 SWAP6 SWAP9 SWAP12 SWAP1 SWAP4 SWAP7 SWAP10 POP JUMP JUMPDEST PUSH1 0x0 PUSH1 0x20 DUP3 DUP5 SUB SLT ISZERO PUSH3 0x510 JUMPI PUSH3 0x50F PUSH3 0x906 JUMP JUMPDEST JUMPDEST PUSH1 0x0 PUSH3 0x520 DUP5 DUP3 DUP6 ADD PUSH3 0x2DB JUMP JUMPDEST SWAP2 POP POP SWAP3 SWAP2 POP POP JUMP JUMPDEST PUSH1 0x0 PUSH3 0x537 DUP4 DUP4 PUSH3 0x543 JUMP JUMPDEST PUSH1 0x20 DUP4 ADD SWAP1 POP SWAP3 SWAP2 POP POP JUMP JUMPDEST PUSH3 0x54E DUP2 PUSH3 0x80F JUMP JUMPDEST DUP3 MSTORE POP POP JUMP JUMPDEST PUSH3 0x55F DUP2 PUSH3 0x80F JUMP JUMPDEST DUP3 MSTORE POP POP JUMP JUMPDEST PUSH1 0x0 PUSH3 0x572 DUP3 PUSH3 0x7CA JUMP JUMPDEST PUSH3 0x57E DUP2 DUP6 PUSH3 0x7ED JUMP JUMPDEST SWAP4 POP PUSH3 0x58B DUP4 PUSH3 0x7BA JUMP JUMPDEST DUP1 PUSH1 0x0 JUMPDEST DUP4 DUP2 LT ISZERO PUSH3 0x5C2 JUMPI DUP2 MLOAD PUSH3 0x5A6 DUP9 DUP3 PUSH3 0x529 JUMP JUMPDEST SWAP8 POP PUSH3 0x5B3 DUP4 PUSH3 0x7E0 JUMP JUMPDEST SWAP3 POP POP PUSH1 0x1 DUP2 ADD SWAP1 POP PUSH3 0x58F JUMP JUMPDEST POP DUP6 SWAP4 POP POP POP POP SWAP3 SWAP2 POP POP JUMP JUMPDEST PUSH1 0x0 PUSH3 0x5DC DUP3 PUSH3 0x7D5 JUMP JUMPDEST PUSH3 0x5E8 DUP2 DUP6 PUSH3 0x7FE JUMP JUMPDEST SWAP4 POP PUSH3 0x5FA DUP2 DUP6 PUSH1 0x20 DUP7 ADD PUSH3 0x85C JUMP JUMPDEST PUSH3 0x605 DUP2 PUSH3 0x90B JUMP JUMPDEST DUP5 ADD SWAP2 POP POP SWAP3 SWAP2 POP POP JUMP JUMPDEST PUSH3 0x61B DUP2 PUSH3 0x843 JUMP JUMPDEST DUP3 MSTORE POP POP JUMP JUMPDEST PUSH1 0x0 PUSH1 0x20 DUP3 ADD SWAP1 POP PUSH3 0x638 PUSH1 0x0 DUP4 ADD DUP5 PUSH3 0x554 JUMP JUMPDEST SWAP3 SWAP2 POP POP JUMP JUMPDEST PUSH1 0x0 PUSH1 0x20 DUP3 ADD SWAP1 POP DUP2 DUP2 SUB PUSH1 0x0 DUP4 ADD MSTORE PUSH3 0x65A DUP2 DUP5 PUSH3 0x565 JUMP JUMPDEST SWAP1 POP SWAP3 SWAP2 POP POP JUMP JUMPDEST PUSH1 0x0 PUSH2 0x160 DUP3 ADD SWAP1 POP DUP2 DUP2 SUB PUSH1 0x0 DUP4 ADD MSTORE PUSH3 0x67F DUP2 DUP15 PUSH3 0x5CF JUMP JUMPDEST SWAP1 POP DUP2 DUP2 SUB PUSH1 0x20 DUP4 ADD MSTORE PUSH3 0x695 DUP2 DUP14 PUSH3 0x5CF JUMP JUMPDEST SWAP1 POP DUP2 DUP2 SUB PUSH1 0x40 DUP4 ADD MSTORE PUSH3 0x6AB DUP2 DUP13 PUSH3 0x5CF JUMP JUMPDEST SWAP1 POP DUP2 DUP2 SUB PUSH1 0x60 DUP4 ADD MSTORE PUSH3 0x6C1 DUP2 DUP12 PUSH3 0x5CF JUMP JUMPDEST SWAP1 POP PUSH3 0x6D2 PUSH1 0x80 DUP4 ADD DUP11 PUSH3 0x610 JUMP JUMPDEST PUSH3 0x6E1 PUSH1 0xA0 DUP4 ADD DUP10 PUSH3 0x610 JUMP JUMPDEST PUSH3 0x6F0 PUSH1 0xC0 DUP4 ADD DUP9 PUSH3 0x610 JUMP JUMPDEST DUP2 DUP2 SUB PUSH1 0xE0 DUP4 ADD MSTORE PUSH3 0x704 DUP2 DUP8 PUSH3 0x5CF JUMP JUMPDEST SWAP1 POP DUP2 DUP2 SUB PUSH2 0x100 DUP4 ADD MSTORE PUSH3 0x71B DUP2 DUP7 PUSH3 0x5CF JUMP JUMPDEST SWAP1 POP DUP2 DUP2 SUB PUSH2 0x120 DUP4 ADD MSTORE PUSH3 0x732 DUP2 DUP6 PUSH3 0x5CF JUMP JUMPDEST SWAP1 POP DUP2 DUP2 SUB PUSH2 0x140 DUP4 ADD MSTORE PUSH3 0x749 DUP2 DUP5 PUSH3 0x5CF JUMP JUMPDEST SWAP1 POP SWAP13 SWAP12 POP POP POP POP POP POP POP POP POP POP POP POP JUMP JUMPDEST PUSH1 0x0 PUSH3 0x767 PUSH3 0x77A JUMP JUMPDEST SWAP1 POP PUSH3 0x775 DUP3 DUP3 PUSH3 0x892 JUMP JUMPDEST SWAP2 SWAP1 POP JUMP JUMPDEST PUSH1 0x0 PUSH1 0x40 MLOAD SWAP1 POP SWAP1 JUMP JUMPDEST PUSH1 0x0 PUSH8 0xFFFFFFFFFFFFFFFF DUP3 GT ISZERO PUSH3 0x7A2 JUMPI PUSH3 0x7A1 PUSH3 0x8C8 JUMP JUMPDEST JUMPDEST PUSH3 0x7AD DUP3 PUSH3 0x90B JUMP JUMPDEST SWAP1 POP PUSH1 0x20 DUP2 ADD SWAP1 POP SWAP2 SWAP1 POP JUMP JUMPDEST PUSH1 0x0 DUP2 SWAP1 POP PUSH1 0x20 DUP3 ADD SWAP1 POP SWAP2 SWAP1 POP JUMP JUMPDEST PUSH1 0x0 DUP2 MLOAD SWAP1 POP SWAP2 SWAP1 POP JUMP JUMPDEST PUSH1 0x0 DUP2 MLOAD SWAP1 POP SWAP2 SWAP1 POP JUMP JUMPDEST PUSH1 0x0 PUSH1 0x20 DUP3 ADD SWAP1 POP SWAP2 SWAP1 POP JUMP JUMPDEST PUSH1 0x0 DUP3 DUP3 MSTORE PUSH1 0x20 DUP3 ADD SWAP1 POP SWAP3 SWAP2 POP POP JUMP JUMPDEST PUSH1 0x0 DUP3 DUP3 MSTORE PUSH1 0x20 DUP3 ADD SWAP1 POP SWAP3 SWAP2 POP POP JUMP JUMPDEST PUSH1 0x0 PUSH3 0x81C DUP3 PUSH3 0x823 JUMP JUMPDEST SWAP1 POP SWAP2 SWAP1 POP JUMP JUMPDEST PUSH1 0x0 PUSH20 0xFFFFFFFFFFFFFFFFFFFFFFFFFFFFFFFFFFFFFFFF DUP3 AND SWAP1 POP SWAP2 SWAP1 POP JUMP JUMPDEST PUSH1 0x0 DUP2 SWAP1 POP SWAP2 SWAP1 POP JUMP JUMPDEST DUP3 DUP2 DUP4 CALLDATACOPY PUSH1 0x0 DUP4 DUP4 ADD MSTORE POP POP POP JUMP JUMPDEST PUSH1 0x0 JUMPDEST DUP4 DUP2 LT ISZERO PUSH3 0x87C JUMPI DUP1 DUP3 ADD MLOAD DUP2 DUP5 ADD MSTORE PUSH1 0x20 DUP2 ADD SWAP1 POP PUSH3 0x85F JUMP JUMPDEST DUP4 DUP2 GT ISZERO PUSH3 0x88C JUMPI PUSH1 0x0 DUP5 DUP5 ADD MSTORE JUMPDEST POP POP POP POP JUMP JUMPDEST PUSH3 0x89D DUP3 PUSH3 0x90B JUMP JUMPDEST DUP2 ADD DUP2 DUP2 LT PUSH8 0xFFFFFFFFFFFFFFFF DUP3 GT OR ISZERO PUSH3 0x8BF JUMPI PUSH3 0x8BE PUSH3 0x8C8 JUMP JUMPDEST JUMPDEST DUP1 PUSH1 0x40 MSTORE POP POP POP JUMP JUMPDEST PUSH32 0x4E487B7100000000000000000000000000000000000000000000000000000000 PUSH1 0x0 MSTORE PUSH1 0x41 PUSH1 0x4 MSTORE PUSH1 0x24 PUSH1 0x0 REVERT JUMPDEST PUSH1 0x0 DUP1 REVERT JUMPDEST PUSH1 0x0 DUP1 REVERT JUMPDEST PUSH1 0x0 DUP1 REVERT JUMPDEST PUSH1 0x0 DUP1 REVERT JUMPDEST PUSH1 0x0 PUSH1 0x1F NOT PUSH1 0x1F DUP4 ADD AND SWAP1 POP SWAP2 SWAP1 POP JUMP JUMPDEST PUSH3 0x927 DUP2 PUSH3 0x843 JUMP JUMPDEST DUP2 EQ PUSH3 0x933 JUMPI PUSH1 0x0 DUP1 REVERT JUMPDEST POP JUMP INVALID PUSH1 0x80 PUSH1 0x40 MSTORE CALLVALUE DUP1 ISZERO PUSH3 0x11 JUMPI PUSH1 0x0 DUP1 REVERT JUMPDEST POP PUSH1 0x40 MLOAD PUSH3 0x15B3 CODESIZE SUB DUP1 PUSH3 0x15B3 DUP4 CODECOPY DUP2 DUP2 ADD PUSH1 0x40 MSTORE DUP2 ADD SWAP1 PUSH3 0x37 SWAP2 SWAP1 PUSH3 0x2A0 JUMP JUMPDEST DUP11 PUSH1 0x0 SWAP1 DUP1 MLOAD SWAP1 PUSH1 0x20 ADD SWAP1 PUSH3 0x4F SWAP3 SWAP2 SWAP1 PUSH3 0x15B JUMP JUMPDEST POP DUP10 PUSH1 0x1 SWAP1 DUP1 MLOAD SWAP1 PUSH1 0x20 ADD SWAP1 PUSH3 0x68 SWAP3 SWAP2 SWAP1 PUSH3 0x15B JUMP JUMPDEST POP DUP9 PUSH1 0x2 SWAP1 DUP1 MLOAD SWAP1 PUSH1 0x20 ADD SWAP1 PUSH3 0x81 SWAP3 SWAP2 SWAP1 PUSH3 0x15B JUMP JUMPDEST POP DUP8 PUSH1 0x3 SWAP1 DUP1 MLOAD SWAP1 PUSH1 0x20 ADD SWAP1 PUSH3 0x9A SWAP3 SWAP2 SWAP1 PUSH3 0x15B JUMP JUMPDEST POP DUP7 PUSH1 0x4 DUP2 SWAP1 SSTORE POP DUP6 PUSH1 0x5 DUP2 SWAP1 SSTORE POP DUP5 PUSH1 0x6 DUP2 SWAP1 SSTORE POP DUP4 PUSH1 0x7 SWAP1 DUP1 MLOAD SWAP1 PUSH1 0x20 ADD SWAP1 PUSH3 0xC8 SWAP3 SWAP2 SWAP1 PUSH3 0x15B JUMP JUMPDEST POP DUP3 PUSH1 0x8 SWAP1 DUP1 MLOAD SWAP1 PUSH1 0x20 ADD SWAP1 PUSH3 0xE1 SWAP3 SWAP2 SWAP1 PUSH3 0x15B JUMP JUMPDEST POP DUP2 PUSH1 0x9 SWAP1 DUP1 MLOAD SWAP1 PUSH1 0x20 ADD SWAP1 PUSH3 0xFA SWAP3 SWAP2 SWAP1 PUSH3 0x15B JUMP JUMPDEST POP DUP1 PUSH1 0xA SWAP1 DUP1 MLOAD SWAP1 PUSH1 0x20 ADD SWAP1 PUSH3 0x113 SWAP3 SWAP2 SWAP1 PUSH3 0x15B JUMP JUMPDEST POP PUSH1 0x0 PUSH1 0xB PUSH1 0x0 PUSH2 0x100 EXP DUP2 SLOAD DUP2 PUSH1 0xFF MUL NOT AND SWAP1 DUP4 ISZERO ISZERO MUL OR SWAP1 SSTORE POP PUSH1 0x0 PUSH1 0xB PUSH1 0x1 PUSH2 0x100 EXP DUP2 SLOAD DUP2 PUSH1 0xFF MUL NOT AND SWAP1 DUP4 ISZERO ISZERO MUL OR SWAP1 SSTORE POP POP POP POP POP POP POP POP POP POP POP POP PUSH3 0x64D JUMP JUMPDEST DUP3 DUP1 SLOAD PUSH3 0x169 SWAP1 PUSH3 0x544 JUMP JUMPDEST SWAP1 PUSH1 0x0 MSTORE PUSH1 0x20 PUSH1 0x0 KECCAK256 SWAP1 PUSH1 0x1F ADD PUSH1 0x20 SWAP1 DIV DUP2 ADD SWAP3 DUP3 PUSH3 0x18D JUMPI PUSH1 0x0 DUP6 SSTORE PUSH3 0x1D9 JUMP JUMPDEST DUP3 PUSH1 0x1F LT PUSH3 0x1A8 JUMPI DUP1 MLOAD PUSH1 0xFF NOT AND DUP4 DUP1 ADD OR DUP6 SSTORE PUSH3 0x1D9 JUMP JUMPDEST DUP3 DUP1 ADD PUSH1 0x1 ADD DUP6 SSTORE DUP3 ISZERO PUSH3 0x1D9 JUMPI SWAP2 DUP3 ADD JUMPDEST DUP3 DUP2 GT ISZERO PUSH3 0x1D8 JUMPI DUP3 MLOAD DUP3 SSTORE SWAP2 PUSH1 0x20 ADD SWAP2 SWAP1 PUSH1 0x1 ADD SWAP1 PUSH3 0x1BB JUMP JUMPDEST JUMPDEST POP SWAP1 POP PUSH3 0x1E8 SWAP2 SWAP1 PUSH3 0x1EC JUMP JUMPDEST POP SWAP1 JUMP JUMPDEST JUMPDEST DUP1 DUP3 GT ISZERO PUSH3 0x207 JUMPI PUSH1 0x0 DUP2 PUSH1 0x0 SWAP1 SSTORE POP PUSH1 0x1 ADD PUSH3 0x1ED JUMP JUMPDEST POP SWAP1 JUMP JUMPDEST PUSH1 0x0 PUSH3 0x222 PUSH3 0x21C DUP5 PUSH3 0x4CE JUMP JUMPDEST PUSH3 0x4A5 JUMP JUMPDEST SWAP1 POP DUP3 DUP2 MSTORE PUSH1 0x20 DUP2 ADD DUP5 DUP5 DUP5 ADD GT ISZERO PUSH3 0x241 JUMPI PUSH3 0x240 PUSH3 0x613 JUMP JUMPDEST JUMPDEST PUSH3 0x24E DUP5 DUP3 DUP6 PUSH3 0x50E JUMP JUMPDEST POP SWAP4 SWAP3 POP POP POP JUMP JUMPDEST PUSH1 0x0 DUP3 PUSH1 0x1F DUP4 ADD SLT PUSH3 0x26E JUMPI PUSH3 0x26D PUSH3 0x60E JUMP JUMPDEST JUMPDEST DUP2 MLOAD PUSH3 0x280 DUP5 DUP3 PUSH1 0x20 DUP7 ADD PUSH3 0x20B JUMP JUMPDEST SWAP2 POP POP SWAP3 SWAP2 POP POP JUMP JUMPDEST PUSH1 0x0 DUP2 MLOAD SWAP1 POP PUSH3 0x29A DUP2 PUSH3 0x633 JUMP JUMPDEST SWAP3 SWAP2 POP POP JUMP JUMPDEST PUSH1 0x0 DUP1 PUSH1 0x0 DUP1 PUSH1 0x0 DUP1 PUSH1 0x0 DUP1 PUSH1 0x0 DUP1 PUSH1 0x0 PUSH2 0x160 DUP13 DUP15 SUB SLT ISZERO PUSH3 0x2C9 JUMPI PUSH3 0x2C8 PUSH3 0x61D JUMP JUMPDEST JUMPDEST PUSH1 0x0 DUP13 ADD MLOAD PUSH8 0xFFFFFFFFFFFFFFFF DUP2 GT ISZERO PUSH3 0x2EA JUMPI PUSH3 0x2E9 PUSH3 0x618 JUMP JUMPDEST JUMPDEST PUSH3 0x2F8 DUP15 DUP3 DUP16 ADD PUSH3 0x256 JUMP JUMPDEST SWAP12 POP POP PUSH1 0x20 DUP13 ADD MLOAD PUSH8 0xFFFFFFFFFFFFFFFF DUP2 GT ISZERO PUSH3 0x31C JUMPI PUSH3 0x31B PUSH3 0x618 JUMP JUMPDEST JUMPDEST PUSH3 0x32A DUP15 DUP3 DUP16 ADD PUSH3 0x256 JUMP JUMPDEST SWAP11 POP POP PUSH1 0x40 DUP13 ADD MLOAD PUSH8 0xFFFFFFFFFFFFFFFF DUP2 GT ISZERO PUSH3 0x34E JUMPI PUSH3 0x34D PUSH3 0x618 JUMP JUMPDEST JUMPDEST PUSH3 0x35C DUP15 DUP3 DUP16 ADD PUSH3 0x256 JUMP JUMPDEST SWAP10 POP POP PUSH1 0x60 DUP13 ADD MLOAD PUSH8 0xFFFFFFFFFFFFFFFF DUP2 GT ISZERO PUSH3 0x380 JUMPI PUSH3 0x37F PUSH3 0x618 JUMP JUMPDEST JUMPDEST PUSH3 0x38E DUP15 DUP3 DUP16 ADD PUSH3 0x256 JUMP JUMPDEST SWAP9 POP POP PUSH1 0x80 PUSH3 0x3A1 DUP15 DUP3 DUP16 ADD PUSH3 0x289 JUMP JUMPDEST SWAP8 POP POP PUSH1 0xA0 PUSH3 0x3B4 DUP15 DUP3 DUP16 ADD PUSH3 0x289 JUMP JUMPDEST SWAP7 POP POP PUSH1 0xC0 PUSH3 0x3C7 DUP15 DUP3 DUP16 ADD PUSH3 0x289 JUMP JUMPDEST SWAP6 POP POP PUSH1 0xE0 DUP13 ADD MLOAD PUSH8 0xFFFFFFFFFFFFFFFF DUP2 GT ISZERO PUSH3 0x3EB JUMPI PUSH3 0x3EA PUSH3 0x618 JUMP JUMPDEST JUMPDEST PUSH3 0x3F9 DUP15 DUP3 DUP16 ADD PUSH3 0x256 JUMP JUMPDEST SWAP5 POP POP PUSH2 0x100 DUP13 ADD MLOAD PUSH8 0xFFFFFFFFFFFFFFFF DUP2 GT ISZERO PUSH3 0x41E JUMPI PUSH3 0x41D PUSH3 0x618 JUMP JUMPDEST JUMPDEST PUSH3 0x42C DUP15 DUP3 DUP16 ADD PUSH3 0x256 JUMP JUMPDEST SWAP4 POP POP PUSH2 0x120 DUP13 ADD MLOAD PUSH8 0xFFFFFFFFFFFFFFFF DUP2 GT ISZERO PUSH3 0x451 JUMPI PUSH3 0x450 PUSH3 0x618 JUMP JUMPDEST JUMPDEST PUSH3 0x45F DUP15 DUP3 DUP16 ADD PUSH3 0x256 JUMP JUMPDEST SWAP3 POP POP PUSH2 0x140 DUP13 ADD MLOAD PUSH8 0xFFFFFFFFFFFFFFFF DUP2 GT ISZERO PUSH3 0x484 JUMPI PUSH3 0x483 PUSH3 0x618 JUMP JUMPDEST JUMPDEST PUSH3 0x492 DUP15 DUP3 DUP16 ADD PUSH3 0x256 JUMP JUMPDEST SWAP2 POP POP SWAP3 SWAP6 SWAP9 SWAP12 POP SWAP3 SWAP6 SWAP9 SWAP12 SWAP1 SWAP4 SWAP7 SWAP10 POP JUMP JUMPDEST PUSH1 0x0 PUSH3 0x4B1 PUSH3 0x4C4 JUMP JUMPDEST SWAP1 POP PUSH3 0x4BF DUP3 DUP3 PUSH3 0x57A JUMP JUMPDEST SWAP2 SWAP1 POP JUMP JUMPDEST PUSH1 0x0 PUSH1 0x40 MLOAD SWAP1 POP SWAP1 JUMP JUMPDEST PUSH1 0x0 PUSH8 0xFFFFFFFFFFFFFFFF DUP3 GT ISZERO PUSH3 0x4EC JUMPI PUSH3 0x4EB PUSH3 0x5DF JUMP JUMPDEST JUMPDEST PUSH3 0x4F7 DUP3 PUSH3 0x622 JUMP JUMPDEST SWAP1 POP PUSH1 0x20 DUP2 ADD SWAP1 POP SWAP2 SWAP1 POP JUMP JUMPDEST PUSH1 0x0 DUP2 SWAP1 POP SWAP2 SWAP1 POP JUMP JUMPDEST PUSH1 0x0 JUMPDEST DUP4 DUP2 LT ISZERO PUSH3 0x52E JUMPI DUP1 DUP3 ADD MLOAD DUP2 DUP5 ADD MSTORE PUSH1 0x20 DUP2 ADD SWAP1 POP PUSH3 0x511 JUMP JUMPDEST DUP4 DUP2 GT ISZERO PUSH3 0x53E JUMPI PUSH1 0x0 DUP5 DUP5 ADD MSTORE JUMPDEST POP POP POP POP JUMP JUMPDEST PUSH1 0x0 PUSH1 0x2 DUP3 DIV SWAP1 POP PUSH1 0x1 DUP3 AND DUP1 PUSH3 0x55D JUMPI PUSH1 0x7F DUP3 AND SWAP2 POP JUMPDEST PUSH1 0x20 DUP3 LT DUP2 EQ ISZERO PUSH3 0x574 JUMPI PUSH3 0x573 PUSH3 0x5B0 JUMP JUMPDEST JUMPDEST POP SWAP2 SWAP1 POP JUMP JUMPDEST PUSH3 0x585 DUP3 PUSH3 0x622 JUMP JUMPDEST DUP2 ADD DUP2 DUP2 LT PUSH8 0xFFFFFFFFFFFFFFFF DUP3 GT OR ISZERO PUSH3 0x5A7 JUMPI PUSH3 0x5A6 PUSH3 0x5DF JUMP JUMPDEST JUMPDEST DUP1 PUSH1 0x40 MSTORE POP POP POP JUMP JUMPDEST PUSH32 0x4E487B7100000000000000000000000000000000000000000000000000000000 PUSH1 0x0 MSTORE PUSH1 0x22 PUSH1 0x4 MSTORE PUSH1 0x24 PUSH1 0x0 REVERT JUMPDEST PUSH32 0x4E487B7100000000000000000000000000000000000000000000000000000000 PUSH1 0x0 MSTORE PUSH1 0x41 PUSH1 0x4 MSTORE PUSH1 0x24 PUSH1 0x0 REVERT JUMPDEST PUSH1 0x0 DUP1 REVERT JUMPDEST PUSH1 0x0 DUP1 REVERT JUMPDEST PUSH1 0x0 DUP1 REVERT JUMPDEST PUSH1 0x0 DUP1 REVERT JUMPDEST PUSH1 0x0 PUSH1 0x1F NOT PUSH1 0x1F DUP4 ADD AND SWAP1 POP SWAP2 SWAP1 POP JUMP JUMPDEST PUSH3 0x63E DUP2 PUSH3 0x504 JUMP JUMPDEST DUP2 EQ PUSH3 0x64A JUMPI PUSH1 0x0 DUP1 REVERT JUMPDEST POP JUMP JUMPDEST PUSH2 0xF56 DUP1 PUSH3 0x65D PUSH1 0x0 CODECOPY PUSH1 0x0 RETURN INVALID PUSH1 0x80 PUSH1 0x40 MSTORE CALLVALUE DUP1 ISZERO PUSH2 0x10 JUMPI PUSH1 0x0 DUP1 REVERT JUMPDEST POP PUSH1 0x4 CALLDATASIZE LT PUSH2 0x62 JUMPI PUSH1 0x0 CALLDATALOAD PUSH1 0xE0 SHR DUP1 PUSH4 0x30884B68 EQ PUSH2 0x67 JUMPI DUP1 PUSH4 0x3BC5DE30 EQ PUSH2 0x85 JUMPI DUP1 PUSH4 0x47F450B0 EQ PUSH2 0xAE JUMPI DUP1 PUSH4 0x4A2BFDC7 EQ PUSH2 0xCC JUMPI DUP1 PUSH4 0x86444B43 EQ PUSH2 0xD6 JUMPI DUP1 PUSH4 0xDC4ADE84 EQ PUSH2 0xF2 JUMPI JUMPDEST PUSH1 0x0 DUP1 REVERT JUMPDEST PUSH2 0x6F PUSH2 0xFC JUMP JUMPDEST PUSH1 0x40 MLOAD PUSH2 0x7C SWAP2 SWAP1 PUSH2 0xC30 JUMP JUMPDEST PUSH1 0x40 MLOAD DUP1 SWAP2 SUB SWAP1 RETURN JUMPDEST PUSH2 0x8D PUSH2 0x18E JUMP JUMPDEST PUSH1 0x40 MLOAD PUSH2 0xA5 SWAP13 SWAP12 SWAP11 SWAP10 SWAP9 SWAP8 SWAP7 SWAP6 SWAP5 SWAP4 SWAP3 SWAP2 SWAP1 PUSH2 0xC52 JUMP JUMPDEST PUSH1 0x40 MLOAD DUP1 SWAP2 SUB SWAP1 RETURN JUMPDEST PUSH2 0xB6 PUSH2 0x5D2 JUMP JUMPDEST PUSH1 0x40 MLOAD PUSH2 0xC3 SWAP2 SWAP1 PUSH2 0xD3D JUMP JUMPDEST PUSH1 0x40 MLOAD DUP1 SWAP2 SUB SWAP1 RETURN JUMPDEST PUSH2 0xD4 PUSH2 0x834 JUMP JUMPDEST STOP JUMPDEST PUSH2 0xF0 PUSH1 0x4 DUP1 CALLDATASIZE SUB DUP2 ADD SWAP1 PUSH2 0xEB SWAP2 SWAP1 PUSH2 0xA51 JUMP JUMPDEST PUSH2 0x851 JUMP JUMPDEST STOP JUMPDEST PUSH2 0xFA PUSH2 0x8F9 JUMP JUMPDEST STOP JUMPDEST PUSH1 0x60 PUSH1 0x0 DUP1 SLOAD PUSH2 0x10B SWAP1 PUSH2 0xE3A JUMP JUMPDEST DUP1 PUSH1 0x1F ADD PUSH1 0x20 DUP1 SWAP2 DIV MUL PUSH1 0x20 ADD PUSH1 0x40 MLOAD SWAP1 DUP2 ADD PUSH1 0x40 MSTORE DUP1 SWAP3 SWAP2 SWAP1 DUP2 DUP2 MSTORE PUSH1 0x20 ADD DUP3 DUP1 SLOAD PUSH2 0x137 SWAP1 PUSH2 0xE3A JUMP JUMPDEST DUP1 ISZERO PUSH2 0x184 JUMPI DUP1 PUSH1 0x1F LT PUSH2 0x159 JUMPI PUSH2 0x100 DUP1 DUP4 SLOAD DIV MUL DUP4 MSTORE SWAP2 PUSH1 0x20 ADD SWAP2 PUSH2 0x184 JUMP JUMPDEST DUP3 ADD SWAP2 SWAP1 PUSH1 0x0 MSTORE PUSH1 0x20 PUSH1 0x0 KECCAK256 SWAP1 JUMPDEST DUP2 SLOAD DUP2 MSTORE SWAP1 PUSH1 0x1 ADD SWAP1 PUSH1 0x20 ADD DUP1 DUP4 GT PUSH2 0x167 JUMPI DUP3 SWAP1 SUB PUSH1 0x1F AND DUP3 ADD SWAP2 JUMPDEST POP POP POP POP POP SWAP1 POP SWAP1 JUMP JUMPDEST PUSH1 0x60 DUP1 PUSH1 0x60 PUSH1 0x0 DUP1 PUSH1 0x0 PUSH1 0x60 DUP1 PUSH1 0x60 DUP1 PUSH1 0x0 DUP1 PUSH1 0x1 PUSH1 0x2 PUSH1 0x3 PUSH1 0x4 SLOAD PUSH1 0x5 SLOAD PUSH1 0x6 SLOAD PUSH1 0x7 PUSH1 0x8 PUSH1 0x9 PUSH1 0xA PUSH1 0xB PUSH1 0x0 SWAP1 SLOAD SWAP1 PUSH2 0x100 EXP SWAP1 DIV PUSH1 0xFF AND PUSH1 0xB PUSH1 0x1 SWAP1 SLOAD SWAP1 PUSH2 0x100 EXP SWAP1 DIV PUSH1 0xFF AND DUP12 DUP1 SLOAD PUSH2 0x1E4 SWAP1 PUSH2 0xE3A JUMP JUMPDEST DUP1 PUSH1 0x1F ADD PUSH1 0x20 DUP1 SWAP2 DIV MUL PUSH1 0x20 ADD PUSH1 0x40 MLOAD SWAP1 DUP2 ADD PUSH1 0x40 MSTORE DUP1 SWAP3 SWAP2 SWAP1 DUP2 DUP2 MSTORE PUSH1 0x20 ADD DUP3 DUP1 SLOAD PUSH2 0x210 SWAP1 PUSH2 0xE3A JUMP JUMPDEST DUP1 ISZERO PUSH2 0x25D JUMPI DUP1 PUSH1 0x1F LT PUSH2 0x232 JUMPI PUSH2 0x100 DUP1 DUP4 SLOAD DIV MUL DUP4 MSTORE SWAP2 PUSH1 0x20 ADD SWAP2 PUSH2 0x25D JUMP JUMPDEST DUP3 ADD SWAP2 SWAP1 PUSH1 0x0 MSTORE PUSH1 0x20 PUSH1 0x0 KECCAK256 SWAP1 JUMPDEST DUP2 SLOAD DUP2 MSTORE SWAP1 PUSH1 0x1 ADD SWAP1 PUSH1 0x20 ADD DUP1 DUP4 GT PUSH2 0x240 JUMPI DUP3 SWAP1 SUB PUSH1 0x1F AND DUP3 ADD SWAP2 JUMPDEST POP POP POP POP POP SWAP12 POP DUP11 DUP1 SLOAD PUSH2 0x270 SWAP1 PUSH2 0xE3A JUMP JUMPDEST DUP1 PUSH1 0x1F ADD PUSH1 0x20 DUP1 SWAP2 DIV MUL PUSH1 0x20 ADD PUSH1 0x40 MLOAD SWAP1 DUP2 ADD PUSH1 0x40 MSTORE DUP1 SWAP3 SWAP2 SWAP1 DUP2 DUP2 MSTORE PUSH1 0x20 ADD DUP3 DUP1 SLOAD PUSH2 0x29C SWAP1 PUSH2 0xE3A JUMP JUMPDEST DUP1 ISZERO PUSH2 0x2E9 JUMPI DUP1 PUSH1 0x1F LT PUSH2 0x2BE JUMPI PUSH2 0x100 DUP1 DUP4 SLOAD DIV MUL DUP4 MSTORE SWAP2 PUSH1 0x20 ADD SWAP2 PUSH2 0x2E9 JUMP JUMPDEST DUP3 ADD SWAP2 SWAP1 PUSH1 0x0 MSTORE PUSH1 0x20 PUSH1 0x0 KECCAK256 SWAP1 JUMPDEST DUP2 SLOAD DUP2 MSTORE SWAP1 PUSH1 0x1 ADD SWAP1 PUSH1 0x20 ADD DUP1 DUP4 GT PUSH2 0x2CC JUMPI DUP3 SWAP1 SUB PUSH1 0x1F AND DUP3 ADD SWAP2 JUMPDEST POP POP POP POP POP SWAP11 POP DUP10 DUP1 SLOAD PUSH2 0x2FC SWAP1 PUSH2 0xE3A JUMP JUMPDEST DUP1 PUSH1 0x1F ADD PUSH1 0x20 DUP1 SWAP2 DIV MUL PUSH1 0x20 ADD PUSH1 0x40 MLOAD SWAP1 DUP2 ADD PUSH1 0x40 MSTORE DUP1 SWAP3 SWAP2 SWAP1 DUP2 DUP2 MSTORE PUSH1 0x20 ADD DUP3 DUP1 SLOAD PUSH2 0x328 SWAP1 PUSH2 0xE3A JUMP JUMPDEST DUP1 ISZERO PUSH2 0x375 JUMPI DUP1 PUSH1 0x1F LT PUSH2 0x34A JUMPI PUSH2 0x100 DUP1 DUP4 SLOAD DIV MUL DUP4 MSTORE SWAP2 PUSH1 0x20 ADD SWAP2 PUSH2 0x375 JUMP JUMPDEST DUP3 ADD SWAP2 SWAP1 PUSH1 0x0 MSTORE PUSH1 0x20 PUSH1 0x0 KECCAK256 SWAP1 JUMPDEST DUP2 SLOAD DUP2 MSTORE SWAP1 PUSH1 0x1 ADD SWAP1 PUSH1 0x20 ADD DUP1 DUP4 GT PUSH2 0x358 JUMPI DUP3 SWAP1 SUB PUSH1 0x1F AND DUP3 ADD SWAP2 JUMPDEST POP POP POP POP POP SWAP10 POP DUP6 DUP1 SLOAD PUSH2 0x388 SWAP1 PUSH2 0xE3A JUMP JUMPDEST DUP1 PUSH1 0x1F ADD PUSH1 0x20 DUP1 SWAP2 DIV MUL PUSH1 0x20 ADD PUSH1 0x40 MLOAD SWAP1 DUP2 ADD PUSH1 0x40 MSTORE DUP1 SWAP3 SWAP2 SWAP1 DUP2 DUP2 MSTORE PUSH1 0x20 ADD DUP3 DUP1 SLOAD PUSH2 0x3B4 SWAP1 PUSH2 0xE3A JUMP JUMPDEST DUP1 ISZERO PUSH2 0x401 JUMPI DUP1 PUSH1 0x1F LT PUSH2 0x3D6 JUMPI PUSH2 0x100 DUP1 DUP4 SLOAD DIV MUL DUP4 MSTORE SWAP2 PUSH1 0x20 ADD SWAP2 PUSH2 0x401 JUMP JUMPDEST DUP3 ADD SWAP2 SWAP1 PUSH1 0x0 MSTORE PUSH1 0x20 PUSH1 0x0 KECCAK256 SWAP1 JUMPDEST DUP2 SLOAD DUP2 MSTORE SWAP1 PUSH1 0x1 ADD SWAP1 PUSH1 0x20 ADD DUP1 DUP4 GT PUSH2 0x3E4 JUMPI DUP3 SWAP1 SUB PUSH1 0x1F AND DUP3 ADD SWAP2 JUMPDEST POP POP POP POP POP SWAP6 POP DUP5 DUP1 SLOAD PUSH2 0x414 SWAP1 PUSH2 0xE3A JUMP JUMPDEST DUP1 PUSH1 0x1F ADD PUSH1 0x20 DUP1 SWAP2 DIV MUL PUSH1 0x20 ADD PUSH1 0x40 MLOAD SWAP1 DUP2 ADD PUSH1 0x40 MSTORE DUP1 SWAP3 SWAP2 SWAP1 DUP2 DUP2 MSTORE PUSH1 0x20 ADD DUP3 DUP1 SLOAD PUSH2 0x440 SWAP1 PUSH2 0xE3A JUMP JUMPDEST DUP1 ISZERO PUSH2 0x48D JUMPI DUP1 PUSH1 0x1F LT PUSH2 0x462 JUMPI PUSH2 0x100 DUP1 DUP4 SLOAD DIV MUL DUP4 MSTORE SWAP2 PUSH1 0x20 ADD SWAP2 PUSH2 0x48D JUMP JUMPDEST DUP3 ADD SWAP2 SWAP1 PUSH1 0x0 MSTORE PUSH1 0x20 PUSH1 0x0 KECCAK256 SWAP1 JUMPDEST DUP2 SLOAD DUP2 MSTORE SWAP1 PUSH1 0x1 ADD SWAP1 PUSH1 0x20 ADD DUP1 DUP4 GT PUSH2 0x470 JUMPI DUP3 SWAP1 SUB PUSH1 0x1F AND DUP3 ADD SWAP2 JUMPDEST POP POP POP POP POP SWAP5 POP DUP4 DUP1 SLOAD PUSH2 0x4A0 SWAP1 PUSH2 0xE3A JUMP JUMPDEST DUP1 PUSH1 0x1F ADD PUSH1 0x20 DUP1 SWAP2 DIV MUL PUSH1 0x20 ADD PUSH1 0x40 MLOAD SWAP1 DUP2 ADD PUSH1 0x40 MSTORE DUP1 SWAP3 SWAP2 SWAP1 DUP2 DUP2 MSTORE PUSH1 0x20 ADD DUP3 DUP1 SLOAD PUSH2 0x4CC SWAP1 PUSH2 0xE3A JUMP JUMPDEST DUP1 ISZERO PUSH2 0x519 JUMPI DUP1 PUSH1 0x1F LT PUSH2 0x4EE JUMPI PUSH2 0x100 DUP1 DUP4 SLOAD DIV MUL DUP4 MSTORE SWAP2 PUSH1 0x20 ADD SWAP2 PUSH2 0x519 JUMP JUMPDEST DUP3 ADD SWAP2 SWAP1 PUSH1 0x0 MSTORE PUSH1 0x20 PUSH1 0x0 KECCAK256 SWAP1 JUMPDEST DUP2 SLOAD DUP2 MSTORE SWAP1 PUSH1 0x1 ADD SWAP1 PUSH1 0x20 ADD DUP1 DUP4 GT PUSH2 0x4FC JUMPI DUP3 SWAP1 SUB PUSH1 0x1F AND DUP3 ADD SWAP2 JUMPDEST POP POP POP POP POP SWAP4 POP DUP3 DUP1 SLOAD PUSH2 0x52C SWAP1 PUSH2 0xE3A JUMP JUMPDEST DUP1 PUSH1 0x1F ADD PUSH1 0x20 DUP1 SWAP2 DIV MUL PUSH1 0x20 ADD PUSH1 0x40 MLOAD SWAP1 DUP2 ADD PUSH1 0x40 MSTORE DUP1 SWAP3 SWAP2 SWAP1 DUP2 DUP2 MSTORE PUSH1 0x20 ADD DUP3 DUP1 SLOAD PUSH2 0x558 SWAP1 PUSH2 0xE3A JUMP JUMPDEST DUP1 ISZERO PUSH2 0x5A5 JUMPI DUP1 PUSH1 0x1F LT PUSH2 0x57A JUMPI PUSH2 0x100 DUP1 DUP4 SLOAD DIV MUL DUP4 MSTORE SWAP2 PUSH1 0x20 ADD SWAP2 PUSH2 0x5A5 JUMP JUMPDEST DUP3 ADD SWAP2 SWAP1 PUSH1 0x0 MSTORE PUSH1 0x20 PUSH1 0x0 KECCAK256 SWAP1 JUMPDEST DUP2 SLOAD DUP2 MSTORE SWAP1 PUSH1 0x1 ADD SWAP1 PUSH1 0x20 ADD DUP1 DUP4 GT PUSH2 0x588 JUMPI DUP3 SWAP1 SUB PUSH1 0x1F AND DUP3 ADD SWAP2 JUMPDEST POP POP POP POP POP SWAP3 POP SWAP12 POP SWAP12 POP SWAP12 POP SWAP12 POP SWAP12 POP SWAP12 POP SWAP12 POP SWAP12 POP SWAP12 POP SWAP12 POP SWAP12 POP SWAP12 POP SWAP1 SWAP2 SWAP3 SWAP4 SWAP5 SWAP6 SWAP7 SWAP8 SWAP9 SWAP10 SWAP11 SWAP12 JUMP JUMPDEST PUSH2 0x5DA PUSH2 0x916 JUMP JUMPDEST PUSH1 0xC PUSH1 0x40 MLOAD DUP1 PUSH1 0x80 ADD PUSH1 0x40 MSTORE SWAP1 DUP2 PUSH1 0x0 DUP3 ADD DUP1 SLOAD PUSH2 0x5F7 SWAP1 PUSH2 0xE3A JUMP JUMPDEST DUP1 PUSH1 0x1F ADD PUSH1 0x20 DUP1 SWAP2 DIV MUL PUSH1 0x20 ADD PUSH1 0x40 MLOAD SWAP1 DUP2 ADD PUSH1 0x40 MSTORE DUP1 SWAP3 SWAP2 SWAP1 DUP2 DUP2 MSTORE PUSH1 0x20 ADD DUP3 DUP1 SLOAD PUSH2 0x623 SWAP1 PUSH2 0xE3A JUMP JUMPDEST DUP1 ISZERO PUSH2 0x670 JUMPI DUP1 PUSH1 0x1F LT PUSH2 0x645 JUMPI PUSH2 0x100 DUP1 DUP4 SLOAD DIV MUL DUP4 MSTORE SWAP2 PUSH1 0x20 ADD SWAP2 PUSH2 0x670 JUMP JUMPDEST DUP3 ADD SWAP2 SWAP1 PUSH1 0x0 MSTORE PUSH1 0x20 PUSH1 0x0 KECCAK256 SWAP1 JUMPDEST DUP2 SLOAD DUP2 MSTORE SWAP1 PUSH1 0x1 ADD SWAP1 PUSH1 0x20 ADD DUP1 DUP4 GT PUSH2 0x653 JUMPI DUP3 SWAP1 SUB PUSH1 0x1F AND DUP3 ADD SWAP2 JUMPDEST POP POP POP POP POP DUP2 MSTORE PUSH1 0x20 ADD PUSH1 0x1 DUP3 ADD DUP1 SLOAD PUSH2 0x689 SWAP1 PUSH2 0xE3A JUMP JUMPDEST DUP1 PUSH1 0x1F ADD PUSH1 0x20 DUP1 SWAP2 DIV MUL PUSH1 0x20 ADD PUSH1 0x40 MLOAD SWAP1 DUP2 ADD PUSH1 0x40 MSTORE DUP1 SWAP3 SWAP2 SWAP1 DUP2 DUP2 MSTORE PUSH1 0x20 ADD DUP3 DUP1 SLOAD PUSH2 0x6B5 SWAP1 PUSH2 0xE3A JUMP JUMPDEST DUP1 ISZERO PUSH2 0x702 JUMPI DUP1 PUSH1 0x1F LT PUSH2 0x6D7 JUMPI PUSH2 0x100 DUP1 DUP4 SLOAD DIV MUL DUP4 MSTORE SWAP2 PUSH1 0x20 ADD SWAP2 PUSH2 0x702 JUMP JUMPDEST DUP3 ADD SWAP2 SWAP1 PUSH1 0x0 MSTORE PUSH1 0x20 PUSH1 0x0 KECCAK256 SWAP1 JUMPDEST DUP2 SLOAD DUP2 MSTORE SWAP1 PUSH1 0x1 ADD SWAP1 PUSH1 0x20 ADD DUP1 DUP4 GT PUSH2 0x6E5 JUMPI DUP3 SWAP1 SUB PUSH1 0x1F AND DUP3 ADD SWAP2 JUMPDEST POP POP POP POP POP DUP2 MSTORE PUSH1 0x20 ADD PUSH1 0x2 DUP3 ADD DUP1 SLOAD PUSH2 0x71B SWAP1 PUSH2 0xE3A JUMP JUMPDEST DUP1 PUSH1 0x1F ADD PUSH1 0x20 DUP1 SWAP2 DIV MUL PUSH1 0x20 ADD PUSH1 0x40 MLOAD SWAP1 DUP2 ADD PUSH1 0x40 MSTORE DUP1 SWAP3 SWAP2 SWAP1 DUP2 DUP2 MSTORE PUSH1 0x20 ADD DUP3 DUP1 SLOAD PUSH2 0x747 SWAP1 PUSH2 0xE3A JUMP JUMPDEST DUP1 ISZERO PUSH2 0x794 JUMPI DUP1 PUSH1 0x1F LT PUSH2 0x769 JUMPI PUSH2 0x100 DUP1 DUP4 SLOAD DIV MUL DUP4 MSTORE SWAP2 PUSH1 0x20 ADD SWAP2 PUSH2 0x794 JUMP JUMPDEST DUP3 ADD SWAP2 SWAP1 PUSH1 0x0 MSTORE PUSH1 0x20 PUSH1 0x0 KECCAK256 SWAP1 JUMPDEST DUP2 SLOAD DUP2 MSTORE SWAP1 PUSH1 0x1 ADD SWAP1 PUSH1 0x20 ADD DUP1 DUP4 GT PUSH2 0x777 JUMPI DUP3 SWAP1 SUB PUSH1 0x1F AND DUP3 ADD SWAP2 JUMPDEST POP POP POP POP POP DUP2 MSTORE PUSH1 0x20 ADD PUSH1 0x3 DUP3 ADD DUP1 SLOAD PUSH2 0x7AD SWAP1 PUSH2 0xE3A JUMP JUMPDEST DUP1 PUSH1 0x1F ADD PUSH1 0x20 DUP1 SWAP2 DIV MUL PUSH1 0x20 ADD PUSH1 0x40 MLOAD SWAP1 DUP2 ADD PUSH1 0x40 MSTORE DUP1 SWAP3 SWAP2 SWAP1 DUP2 DUP2 MSTORE PUSH1 0x20 ADD DUP3 DUP1 SLOAD PUSH2 0x7D9 SWAP1 PUSH2 0xE3A JUMP JUMPDEST DUP1 ISZERO PUSH2 0x826 JUMPI DUP1 PUSH1 0x1F LT PUSH2 0x7FB JUMPI PUSH2 0x100 DUP1 DUP4 SLOAD DIV MUL DUP4 MSTORE SWAP2 PUSH1 0x20 ADD SWAP2 PUSH2 0x826 JUMP JUMPDEST DUP3 ADD SWAP2 SWAP1 PUSH1 0x0 MSTORE PUSH1 0x20 PUSH1 0x0 KECCAK256 SWAP1 JUMPDEST DUP2 SLOAD DUP2 MSTORE SWAP1 PUSH1 0x1 ADD SWAP1 PUSH1 0x20 ADD DUP1 DUP4 GT PUSH2 0x809 JUMPI DUP3 SWAP1 SUB PUSH1 0x1F AND DUP3 ADD SWAP2 JUMPDEST POP POP POP POP POP DUP2 MSTORE POP POP SWAP1 POP SWAP1 JUMP JUMPDEST PUSH1 0x1 PUSH1 0xB PUSH1 0x0 PUSH2 0x100 EXP DUP2 SLOAD DUP2 PUSH1 0xFF MUL NOT AND SWAP1 DUP4 ISZERO ISZERO MUL OR SWAP1 SSTORE POP JUMP JUMPDEST PUSH1 0x40 MLOAD DUP1 PUSH1 0x80 ADD PUSH1 0x40 MSTORE DUP1 DUP6 DUP2 MSTORE PUSH1 0x20 ADD DUP5 DUP2 MSTORE PUSH1 0x20 ADD DUP4 DUP2 MSTORE PUSH1 0x20 ADD DUP3 DUP2 MSTORE POP PUSH1 0xC PUSH1 0x0 DUP3 ADD MLOAD DUP2 PUSH1 0x0 ADD SWAP1 DUP1 MLOAD SWAP1 PUSH1 0x20 ADD SWAP1 PUSH2 0x890 SWAP3 SWAP2 SWAP1 PUSH2 0x93E JUMP JUMPDEST POP PUSH1 0x20 DUP3 ADD MLOAD DUP2 PUSH1 0x1 ADD SWAP1 DUP1 MLOAD SWAP1 PUSH1 0x20 ADD SWAP1 PUSH2 0x8AD SWAP3 SWAP2 SWAP1 PUSH2 0x93E JUMP JUMPDEST POP PUSH1 0x40 DUP3 ADD MLOAD DUP2 PUSH1 0x2 ADD SWAP1 DUP1 MLOAD SWAP1 PUSH1 0x20 ADD SWAP1 PUSH2 0x8CA SWAP3 SWAP2 SWAP1 PUSH2 0x93E JUMP JUMPDEST POP PUSH1 0x60 DUP3 ADD MLOAD DUP2 PUSH1 0x3 ADD SWAP1 DUP1 MLOAD SWAP1 PUSH1 0x20 ADD SWAP1 PUSH2 0x8E7 SWAP3 SWAP2 SWAP1 PUSH2 0x93E JUMP JUMPDEST POP SWAP1 POP POP PUSH2 0x8F3 PUSH2 0x834 JUMP JUMPDEST POP POP POP POP JUMP JUMPDEST PUSH1 0x1 PUSH1 0xB PUSH1 0x1 PUSH2 0x100 EXP DUP2 SLOAD DUP2 PUSH1 0xFF MUL NOT AND SWAP1 DUP4 ISZERO ISZERO MUL OR SWAP1 SSTORE POP JUMP JUMPDEST PUSH1 0x40 MLOAD DUP1 PUSH1 0x80 ADD PUSH1 0x40 MSTORE DUP1 PUSH1 0x60 DUP2 MSTORE PUSH1 0x20 ADD PUSH1 0x60 DUP2 MSTORE PUSH1 0x20 ADD PUSH1 0x60 DUP2 MSTORE PUSH1 0x20 ADD PUSH1 0x60 DUP2 MSTORE POP SWAP1 JUMP JUMPDEST DUP3 DUP1 SLOAD PUSH2 0x94A SWAP1 PUSH2 0xE3A JUMP JUMPDEST SWAP1 PUSH1 0x0 MSTORE PUSH1 0x20 PUSH1 0x0 KECCAK256 SWAP1 PUSH1 0x1F ADD PUSH1 0x20 SWAP1 DIV DUP2 ADD SWAP3 DUP3 PUSH2 0x96C JUMPI PUSH1 0x0 DUP6 SSTORE PUSH2 0x9B3 JUMP JUMPDEST DUP3 PUSH1 0x1F LT PUSH2 0x985 JUMPI DUP1 MLOAD PUSH1 0xFF NOT AND DUP4 DUP1 ADD OR DUP6 SSTORE PUSH2 0x9B3 JUMP JUMPDEST DUP3 DUP1 ADD PUSH1 0x1 ADD DUP6 SSTORE DUP3 ISZERO PUSH2 0x9B3 JUMPI SWAP2 DUP3 ADD JUMPDEST DUP3 DUP2 GT ISZERO PUSH2 0x9B2 JUMPI DUP3 MLOAD DUP3 SSTORE SWAP2 PUSH1 0x20 ADD SWAP2 SWAP1 PUSH1 0x1 ADD SWAP1 PUSH2 0x997 JUMP JUMPDEST JUMPDEST POP SWAP1 POP PUSH2 0x9C0 SWAP2 SWAP1 PUSH2 0x9C4 JUMP JUMPDEST POP SWAP1 JUMP JUMPDEST JUMPDEST DUP1 DUP3 GT ISZERO PUSH2 0x9DD JUMPI PUSH1 0x0 DUP2 PUSH1 0x0 SWAP1 SSTORE POP PUSH1 0x1 ADD PUSH2 0x9C5 JUMP JUMPDEST POP SWAP1 JUMP JUMPDEST PUSH1 0x0 PUSH2 0x9F4 PUSH2 0x9EF DUP5 PUSH2 0xD84 JUMP JUMPDEST PUSH2 0xD5F JUMP JUMPDEST SWAP1 POP DUP3 DUP2 MSTORE PUSH1 0x20 DUP2 ADD DUP5 DUP5 DUP5 ADD GT ISZERO PUSH2 0xA10 JUMPI PUSH2 0xA0F PUSH2 0xF00 JUMP JUMPDEST JUMPDEST PUSH2 0xA1B DUP5 DUP3 DUP6 PUSH2 0xDF8 JUMP JUMPDEST POP SWAP4 SWAP3 POP POP POP JUMP JUMPDEST PUSH1 0x0 DUP3 PUSH1 0x1F DUP4 ADD SLT PUSH2 0xA38 JUMPI PUSH2 0xA37 PUSH2 0xEFB JUMP JUMPDEST JUMPDEST DUP2 CALLDATALOAD PUSH2 0xA48 DUP5 DUP3 PUSH1 0x20 DUP7 ADD PUSH2 0x9E1 JUMP JUMPDEST SWAP2 POP POP SWAP3 SWAP2 POP POP JUMP JUMPDEST PUSH1 0x0 DUP1 PUSH1 0x0 DUP1 PUSH1 0x80 DUP6 DUP8 SUB SLT ISZERO PUSH2 0xA6B JUMPI PUSH2 0xA6A PUSH2 0xF0A JUMP JUMPDEST JUMPDEST PUSH1 0x0 DUP6 ADD CALLDATALOAD PUSH8 0xFFFFFFFFFFFFFFFF DUP2 GT ISZERO PUSH2 0xA89 JUMPI PUSH2 0xA88 PUSH2 0xF05 JUMP JUMPDEST JUMPDEST PUSH2 0xA95 DUP8 DUP3 DUP9 ADD PUSH2 0xA23 JUMP JUMPDEST SWAP5 POP POP PUSH1 0x20 DUP6 ADD CALLDATALOAD PUSH8 0xFFFFFFFFFFFFFFFF DUP2 GT ISZERO PUSH2 0xAB6 JUMPI PUSH2 0xAB5 PUSH2 0xF05 JUMP JUMPDEST JUMPDEST PUSH2 0xAC2 DUP8 DUP3 DUP9 ADD PUSH2 0xA23 JUMP JUMPDEST SWAP4 POP POP PUSH1 0x40 DUP6 ADD CALLDATALOAD PUSH8 0xFFFFFFFFFFFFFFFF DUP2 GT ISZERO PUSH2 0xAE3 JUMPI PUSH2 0xAE2 PUSH2 0xF05 JUMP JUMPDEST JUMPDEST PUSH2 0xAEF DUP8 DUP3 DUP9 ADD PUSH2 0xA23 JUMP JUMPDEST SWAP3 POP POP PUSH1 0x60 DUP6 ADD CALLDATALOAD PUSH8 0xFFFFFFFFFFFFFFFF DUP2 GT ISZERO PUSH2 0xB10 JUMPI PUSH2 0xB0F PUSH2 0xF05 JUMP JUMPDEST JUMPDEST PUSH2 0xB1C DUP8 DUP3 DUP9 ADD PUSH2 0xA23 JUMP JUMPDEST SWAP2 POP POP SWAP3 SWAP6 SWAP2 SWAP5 POP SWAP3 POP JUMP JUMPDEST PUSH2 0xB31 DUP2 PUSH2 0xDE2 JUMP JUMPDEST DUP3 MSTORE POP POP JUMP JUMPDEST PUSH1 0x0 PUSH2 0xB42 DUP3 PUSH2 0xDB5 JUMP JUMPDEST PUSH2 0xB4C DUP2 DUP6 PUSH2 0xDC0 JUMP JUMPDEST SWAP4 POP PUSH2 0xB5C DUP2 DUP6 PUSH1 0x20 DUP7 ADD PUSH2 0xE07 JUMP JUMPDEST PUSH2 0xB65 DUP2 PUSH2 0xF0F JUMP JUMPDEST DUP5 ADD SWAP2 POP POP SWAP3 SWAP2 POP POP JUMP JUMPDEST PUSH1 0x0 PUSH2 0xB7B DUP3 PUSH2 0xDB5 JUMP JUMPDEST PUSH2 0xB85 DUP2 DUP6 PUSH2 0xDD1 JUMP JUMPDEST SWAP4 POP PUSH2 0xB95 DUP2 DUP6 PUSH1 0x20 DUP7 ADD PUSH2 0xE07 JUMP JUMPDEST PUSH2 0xB9E DUP2 PUSH2 0xF0F JUMP JUMPDEST DUP5 ADD SWAP2 POP POP SWAP3 SWAP2 POP POP JUMP JUMPDEST PUSH1 0x0 PUSH1 0x80 DUP4 ADD PUSH1 0x0 DUP4 ADD MLOAD DUP5 DUP3 SUB PUSH1 0x0 DUP7 ADD MSTORE PUSH2 0xBC6 DUP3 DUP3 PUSH2 0xB37 JUMP JUMPDEST SWAP2 POP POP PUSH1 0x20 DUP4 ADD MLOAD DUP5 DUP3 SUB PUSH1 0x20 DUP7 ADD MSTORE PUSH2 0xBE0 DUP3 DUP3 PUSH2 0xB37 JUMP JUMPDEST SWAP2 POP POP PUSH1 0x40 DUP4 ADD MLOAD DUP5 DUP3 SUB PUSH1 0x40 DUP7 ADD MSTORE PUSH2 0xBFA DUP3 DUP3 PUSH2 0xB37 JUMP JUMPDEST SWAP2 POP POP PUSH1 0x60 DUP4 ADD MLOAD DUP5 DUP3 SUB PUSH1 0x60 DUP7 ADD MSTORE PUSH2 0xC14 DUP3 DUP3 PUSH2 0xB37 JUMP JUMPDEST SWAP2 POP POP DUP1 SWAP2 POP POP SWAP3 SWAP2 POP POP JUMP JUMPDEST PUSH2 0xC2A DUP2 PUSH2 0xDEE JUMP JUMPDEST DUP3 MSTORE POP POP JUMP JUMPDEST PUSH1 0x0 PUSH1 0x20 DUP3 ADD SWAP1 POP DUP2 DUP2 SUB PUSH1 0x0 DUP4 ADD MSTORE PUSH2 0xC4A DUP2 DUP5 PUSH2 0xB70 JUMP JUMPDEST SWAP1 POP SWAP3 SWAP2 POP POP JUMP JUMPDEST PUSH1 0x0 PUSH2 0x180 DUP3 ADD SWAP1 POP DUP2 DUP2 SUB PUSH1 0x0 DUP4 ADD MSTORE PUSH2 0xC6D DUP2 DUP16 PUSH2 0xB70 JUMP JUMPDEST SWAP1 POP DUP2 DUP2 SUB PUSH1 0x20 DUP4 ADD MSTORE PUSH2 0xC81 DUP2 DUP15 PUSH2 0xB70 JUMP JUMPDEST SWAP1 POP DUP2 DUP2 SUB PUSH1 0x40 DUP4 ADD MSTORE PUSH2 0xC95 DUP2 DUP14 PUSH2 0xB70 JUMP JUMPDEST SWAP1 POP PUSH2 0xCA4 PUSH1 0x60 DUP4 ADD DUP13 PUSH2 0xC21 JUMP JUMPDEST PUSH2 0xCB1 PUSH1 0x80 DUP4 ADD DUP12 PUSH2 0xC21 JUMP JUMPDEST PUSH2 0xCBE PUSH1 0xA0 DUP4 ADD DUP11 PUSH2 0xC21 JUMP JUMPDEST DUP2 DUP2 SUB PUSH1 0xC0 DUP4 ADD MSTORE PUSH2 0xCD0 DUP2 DUP10 PUSH2 0xB70 JUMP JUMPDEST SWAP1 POP DUP2 DUP2 SUB PUSH1 0xE0 DUP4 ADD MSTORE PUSH2 0xCE4 DUP2 DUP9 PUSH2 0xB70 JUMP JUMPDEST SWAP1 POP DUP2 DUP2 SUB PUSH2 0x100 DUP4 ADD MSTORE PUSH2 0xCF9 DUP2 DUP8 PUSH2 0xB70 JUMP JUMPDEST SWAP1 POP DUP2 DUP2 SUB PUSH2 0x120 DUP4 ADD MSTORE PUSH2 0xD0E DUP2 DUP7 PUSH2 0xB70 JUMP JUMPDEST SWAP1 POP PUSH2 0xD1E PUSH2 0x140 DUP4 ADD DUP6 PUSH2 0xB28 JUMP JUMPDEST PUSH2 0xD2C PUSH2 0x160 DUP4 ADD DUP5 PUSH2 0xB28 JUMP JUMPDEST SWAP14 SWAP13 POP POP POP POP POP POP POP POP POP POP POP POP POP JUMP JUMPDEST PUSH1 0x0 PUSH1 0x20 DUP3 ADD SWAP1 POP DUP2 DUP2 SUB PUSH1 0x0 DUP4 ADD MSTORE PUSH2 0xD57 DUP2 DUP5 PUSH2 0xBA9 JUMP JUMPDEST SWAP1 POP SWAP3 SWAP2 POP POP JUMP JUMPDEST PUSH1 0x0 PUSH2 0xD69 PUSH2 0xD7A JUMP JUMPDEST SWAP1 POP PUSH2 0xD75 DUP3 DUP3 PUSH2 0xE6C JUMP JUMPDEST SWAP2 SWAP1 POP JUMP JUMPDEST PUSH1 0x0 PUSH1 0x40 MLOAD SWAP1 POP SWAP1 JUMP JUMPDEST PUSH1 0x0 PUSH8 0xFFFFFFFFFFFFFFFF DUP3 GT ISZERO PUSH2 0xD9F JUMPI PUSH2 0xD9E PUSH2 0xECC JUMP JUMPDEST JUMPDEST PUSH2 0xDA8 DUP3 PUSH2 0xF0F JUMP JUMPDEST SWAP1 POP PUSH1 0x20 DUP2 ADD SWAP1 POP SWAP2 SWAP1 POP JUMP JUMPDEST PUSH1 0x0 DUP2 MLOAD SWAP1 POP SWAP2 SWAP1 POP JUMP JUMPDEST PUSH1 0x0 DUP3 DUP3 MSTORE PUSH1 0x20 DUP3 ADD SWAP1 POP SWAP3 SWAP2 POP POP JUMP JUMPDEST PUSH1 0x0 DUP3 DUP3 MSTORE PUSH1 0x20 DUP3 ADD SWAP1 POP SWAP3 SWAP2 POP POP JUMP JUMPDEST PUSH1 0x0 DUP2 ISZERO ISZERO SWAP1 POP SWAP2 SWAP1 POP JUMP JUMPDEST PUSH1 0x0 DUP2 SWAP1 POP SWAP2 SWAP1 POP JUMP JUMPDEST DUP3 DUP2 DUP4 CALLDATACOPY PUSH1 0x0 DUP4 DUP4 ADD MSTORE POP POP POP JUMP JUMPDEST PUSH1 0x0 JUMPDEST DUP4 DUP2 LT ISZERO PUSH2 0xE25 JUMPI DUP1 DUP3 ADD MLOAD DUP2 DUP5 ADD MSTORE PUSH1 0x20 DUP2 ADD SWAP1 POP PUSH2 0xE0A JUMP JUMPDEST DUP4 DUP2 GT ISZERO PUSH2 0xE34 JUMPI PUSH1 0x0 DUP5 DUP5 ADD MSTORE JUMPDEST POP POP POP POP JUMP JUMPDEST PUSH1 0x0 PUSH1 0x2 DUP3 DIV SWAP1 POP PUSH1 0x1 DUP3 AND DUP1 PUSH2 0xE52 JUMPI PUSH1 0x7F DUP3 AND SWAP2 POP JUMPDEST PUSH1 0x20 DUP3 LT DUP2 EQ ISZERO PUSH2 0xE66 JUMPI PUSH2 0xE65 PUSH2 0xE9D JUMP JUMPDEST JUMPDEST POP SWAP2 SWAP1 POP JUMP JUMPDEST PUSH2 0xE75 DUP3 PUSH2 0xF0F JUMP JUMPDEST DUP2 ADD DUP2 DUP2 LT PUSH8 0xFFFFFFFFFFFFFFFF DUP3 GT OR ISZERO PUSH2 0xE94 JUMPI PUSH2 0xE93 PUSH2 0xECC JUMP JUMPDEST JUMPDEST DUP1 PUSH1 0x40 MSTORE POP POP POP JUMP JUMPDEST PUSH32 0x4E487B7100000000000000000000000000000000000000000000000000000000 PUSH1 0x0 MSTORE PUSH1 0x22 PUSH1 0x4 MSTORE PUSH1 0x24 PUSH1 0x0 REVERT JUMPDEST PUSH32 0x4E487B7100000000000000000000000000000000000000000000000000000000 PUSH1 0x0 MSTORE PUSH1 0x41 PUSH1 0x4 MSTORE PUSH1 0x24 PUSH1 0x0 REVERT JUMPDEST PUSH1 0x0 DUP1 REVERT JUMPDEST PUSH1 0x0 DUP1 REVERT JUMPDEST PUSH1 0x0 DUP1 REVERT JUMPDEST PUSH1 0x0 DUP1 REVERT JUMPDEST PUSH1 0x0 PUSH1 0x1F NOT PUSH1 0x1F DUP4 ADD AND SWAP1 POP SWAP2 SWAP1 POP JUMP INVALID LOG2 PUSH5 0x6970667358 0x22 SLT KECCAK256 SWAP6 0xFB LOG1 0xC6 0xFB 0xE0 GASLIMIT RETURNDATASIZE SWAP10 0xD PUSH14 0x43D0A8CA041AF3440729794029C2 SWAP9 CALLER ADDMOD 0xF SWAP2 0xBB 0xFB PUSH5 0x736F6C6343 STOP ADDMOD MOD STOP CALLER LOG2 PUSH5 0x6970667358 0x22 SLT KECCAK256 0xA6 PUSH8 0xFEE78C5511FB0E5 CODESIZE EQ PUSH12 0xA838553956C8D2963C8516B1 0xC2 0xEB SWAP16 0xBD 0x4F PUSH11 0x5964736F6C634300080600 CALLER "
		},
		"gasEstimates": {
			"creation": {
				"codeDepositCost": "1593400",
				"executionCost": "1666",
				"totalCost": "1595066"
			},
			"external": {
				"createMissingPersonReport(string,string,string,string,uint256,uint256,uint256,string,string,string,string)": "infinite",
				"deployedContracts(uint256)": "4934",
				"getDeployedContracts()": "infinite"
			}
		},
		"methodIdentifiers": {
			"createMissingPersonReport(string,string,string,string,uint256,uint256,uint256,string,string,string,string)": "c114324c",
			"deployedContracts(uint256)": "9ad1ee10",
			"getDeployedContracts()": "aa9a068f"
		}
	},
	"abi": [
		{
			"inputs": [
				{
					"internalType": "string",
					"name": "_pid",
					"type": "string"
				},
				{
					"internalType": "string",
					"name": "_name",
					"type": "string"
				},
				{
					"internalType": "string",
					"name": "_cid",
					"type": "string"
				},
				{
					"internalType": "string",
					"name": "_phoneNumber",
					"type": "string"
				},
				{
					"internalType": "uint256",
					"name": "_age",
					"type": "uint256"
				},
				{
					"internalType": "uint256",
					"name": "_height",
					"type": "uint256"
				},
				{
					"internalType": "uint256",
					"name": "_weight",
					"type": "uint256"
				},
				{
					"internalType": "string",
					"name": "_dateLastSeen",
					"type": "string"
				},
				{
					"internalType": "string",
					"name": "_timeLastSeen",
					"type": "string"
				},
				{
					"internalType": "string",
					"name": "_locationLastSeen",
					"type": "string"
				},
				{
					"internalType": "string",
					"name": "_modeOfTransportUsed",
					"type": "string"
				}
			],
			"name": "createMissingPersonReport",
			"outputs": [],
			"stateMutability": "nonpayable",
			"type": "function"
		},
		{
			"inputs": [
				{
					"internalType": "uint256",
					"name": "",
					"type": "uint256"
				}
			],
			"name": "deployedContracts",
			"outputs": [
				{
					"internalType": "address",
					"name": "",
					"type": "address"
				}
			],
			"stateMutability": "view",
			"type": "function"
		},
		{
			"inputs": [],
			"name": "getDeployedContracts",
			"outputs": [
				{
					"internalType": "address[]",
					"name": "",
					"type": "address[]"
				}
			],
			"stateMutability": "view",
			"type": "function"
		}
	]
}